{"abi":[{"type":"constructor","inputs":[{"name":"_worldId","type":"address","internalType":"address"},{"name":"_appId","type":"string","internalType":"string"},{"name":"_actionId","type":"string","internalType":"string"},{"name":"_usdc","type":"address","internalType":"address"}],"stateMutability":"nonpayable"},{"type":"function","name":"createGame","inputs":[{"name":"question","type":"string","internalType":"string"},{"name":"deadline","type":"uint256","internalType":"uint256"},{"name":"prize","type":"uint256","internalType":"uint256"}],"outputs":[],"stateMutability":"nonpayable"},{"type":"function","name":"gameIdCounter","inputs":[],"outputs":[{"name":"","type":"uint256","internalType":"uint256"}],"stateMutability":"view"},{"type":"function","name":"games","inputs":[{"name":"","type":"uint256","internalType":"uint256"}],"outputs":[{"name":"creator","type":"address","internalType":"address"},{"name":"question","type":"string","internalType":"string"},{"name":"deadline","type":"uint256","internalType":"uint256"},{"name":"prize","type":"uint256","internalType":"uint256"},{"name":"hasAnswer","type":"bool","internalType":"bool"},{"name":"correctAnswer","type":"int256","internalType":"int256"},{"name":"winner","type":"address","internalType":"address"}],"stateMutability":"view"},{"type":"function","name":"submitAnswer","inputs":[{"name":"gameId","type":"uint256","internalType":"uint256"},{"name":"correctAnswer","type":"int256","internalType":"int256"}],"outputs":[],"stateMutability":"nonpayable"},{"type":"function","name":"usdc","inputs":[],"outputs":[{"name":"","type":"address","internalType":"contract IERC20"}],"stateMutability":"view"},{"type":"function","name":"verifyAndExecute","inputs":[{"name":"signal","type":"address","internalType":"address"},{"name":"root","type":"uint256","internalType":"uint256"},{"name":"nullifierHash","type":"uint256","internalType":"uint256"},{"name":"proof","type":"uint256[8]","internalType":"uint256[8]"},{"name":"gameId","type":"uint256","internalType":"uint256"},{"name":"answer","type":"int256","internalType":"int256"}],"outputs":[],"stateMutability":"nonpayable"},{"type":"event","name":"AnswerSubmitted","inputs":[{"name":"gameId","type":"uint256","indexed":false,"internalType":"uint256"},{"name":"correctAnswer","type":"int256","indexed":false,"internalType":"int256"},{"name":"winner","type":"address","indexed":false,"internalType":"address"}],"anonymous":false},{"type":"event","name":"GameCreated","inputs":[{"name":"gameId","type":"uint256","indexed":false,"internalType":"uint256"},{"name":"creator","type":"address","indexed":false,"internalType":"address"},{"name":"question","type":"string","indexed":false,"internalType":"string"},{"name":"deadline","type":"uint256","indexed":false,"internalType":"uint256"},{"name":"prize","type":"uint256","indexed":false,"internalType":"uint256"}],"anonymous":false},{"type":"event","name":"GuessMade","inputs":[{"name":"gameId","type":"uint256","indexed":false,"internalType":"uint256"},{"name":"guesser","type":"address","indexed":false,"internalType":"address"},{"name":"answer","type":"int256","indexed":false,"internalType":"int256"}],"anonymous":false},{"type":"event","name":"Verified","inputs":[{"name":"nullifierHash","type":"uint256","indexed":false,"internalType":"uint256"}],"anonymous":false},{"type":"error","name":"DuplicateNullifier","inputs":[{"name":"nullifierHash","type":"uint256","internalType":"uint256"}]}],"bytecode":{"object":"0x60e0604052600160c05234801561001557600080fd5b506040516110f13803806110f1833981016040819052610034916101c1565b6001600160a01b0384166080526040516100819061006f9061005a90869060200161024c565b60408051601f198184030181529190526100ad565b8360405160200161005a929190610268565b60a052600180546001600160a01b0319166001600160a01b03929092169190911790555061028e915050565b60006008826040516020016100c2919061024c565b60408051601f198184030181529190528051602090910120901c92915050565b80516001600160a01b03811681146100f957600080fd5b919050565b634e487b7160e01b600052604160045260246000fd5b60005b8381101561012f578181015183820152602001610117565b50506000910152565b600082601f83011261014957600080fd5b81516001600160401b03811115610162576101626100fe565b604051601f8201601f19908116603f011681016001600160401b0381118282101715610190576101906100fe565b6040528181528382016020018510156101a857600080fd5b6101b9826020830160208701610114565b949350505050565b600080600080608085870312156101d757600080fd5b6101e0856100e2565b60208601519094506001600160401b038111156101fc57600080fd5b61020887828801610138565b604087015190945090506001600160401b0381111561022657600080fd5b61023287828801610138565b925050610241606086016100e2565b905092959194509250565b6000825161025e818460208701610114565b9190910192915050565b82815260008251610280816020850160208701610114565b919091016020019392505050565b60805160a05160c051610e346102bd60003960006103e101526000610443015260006103b10152610e346000f3fe608060405234801561001057600080fd5b50600436106100625760003560e01c80630b6d715b14610067578063117a5b901461007c5780631bb412d6146100ab5780632c9f7691146100c25780633e413bee146100d557806365ab924e14610100575b600080fd5b61007a61007536600461097e565b610113565b005b61008f61008a366004610a45565b6102a2565b6040516100a29796959493929190610aae565b60405180910390f35b6100b460025481565b6040519081526020016100a2565b61007a6100d0366004610b05565b61037c565b6001546100e8906001600160a01b031681565b6040516001600160a01b0390911681526020016100a2565b61007a61010e366004610b74565b6105c6565b4282116101675760405162461bcd60e51b815260206004820152601e60248201527f446561646c696e65206d75737420626520696e2074686520667574757265000060448201526064015b60405180910390fd5b6001546040516323b872dd60e01b8152336004820152306024820152604481018390526001600160a01b03909116906323b872dd906064016020604051808303816000875af11580156101be573d6000803e3d6000fd5b505050506040513d601f19601f820116820180604052508101906101e29190610b96565b5060028054600091826101f483610bce565b90915550600081815260036020526040902080546001600160a01b03191633178155909150600181016102278682610c70565b50600281018490556003810183905560058101805460ff19169055600060068201556007810180546001600160a01b03191690556040517fa8a150541f7c70610c7148cf0adc58655fbd9e75ee9378fa502d63c3e711cc27906102939084903390899089908990610d2f565b60405180910390a15050505050565b600360205260009081526040902080546001820180546001600160a01b0390921692916102ce90610be7565b80601f01602080910402602001604051908101604052809291908181526020018280546102fa90610be7565b80156103475780601f1061031c57610100808354040283529160200191610347565b820191906000526020600020905b81548152906001019060200180831161032a57829003601f168201915b50505060028401546003850154600586015460068701546007909701549596929591945060ff1692506001600160a01b031687565b60008481526020819052604090205460ff16156103af57604051633c7fd51360e11b81526004810185905260240161015e565b7f00000000000000000000000000000000000000000000000000000000000000006001600160a01b0316633bc778e3867f00000000000000000000000000000000000000000000000000000000000000006104408a60405160200161042c919060609190911b6bffffffffffffffffffffffff1916815260140190565b604051602081830303815290604052610909565b887f0000000000000000000000000000000000000000000000000000000000000000896040518763ffffffff1660e01b815260040161048496959493929190610d6d565b60006040518083038186803b15801561049c57600080fd5b505afa1580156104b0573d6000803e3d6000fd5b50505060008581526020819052604090819020805460ff19166001179055517ff786e7f77ede00a02a5464f8f0555798f42ba99a4a920ef2778db8d75e4656f791506104ff9086815260200190565b60405180910390a1600082815260036020818152604080842081516060808201845233808352828601898152428487019081526004909501805460018082018355918b529988902094519990980290930180546001600160a01b0319166001600160a01b0390991698909817885591519587019590955590516002909501949094558051868152918201939093529182018390527fa9e59492e709a9437095e0adebc21e7d602479e00f8d2c689102494581dfbfda910160405180910390a1505050505050565b60008281526003602052604090206002015482904210156106205760405162461bcd60e51b815260206004820152601460248201527347616d65206973207374696c6c2061637469766560601b604482015260640161015e565b60008381526003602052604090205483906001600160a01b031633146106885760405162461bcd60e51b815260206004820152601f60248201527f4f6e6c792067616d652063726561746f722063616e2063616c6c207468697300604482015260640161015e565b6000848152600360205260409020600581015460ff16156106eb5760405162461bcd60e51b815260206004820152601860248201527f416e7377657220616c7265616479207375626d69747465640000000000000000604482015260640161015e565b6006810184905560058101805460ff191660011790556004810180546107455760405162461bcd60e51b815260206004820152600f60248201526e4e6f2067756573736573206d61646560881b604482015260640161015e565b805460009060001990825b818110156107fb5760006107878a87848154811061077057610770610da5565b90600052602060002090600302016001015461093e565b9050838110806107e6575083811480156107e657508585815481106107ae576107ae610da5565b9060005260206000209060030201600201548683815481106107d2576107d2610da5565b906000526020600020906003020160020154105b156107f2578093508194505b50600101610750565b5083838154811061080e5761080e610da5565b60009182526020909120600391820201546007870180546001600160a01b0319166001600160a01b039283169081179091556001549288015460405163a9059cbb60e01b81526004810192909252602482015291169063a9059cbb906044016020604051808303816000875af115801561088c573d6000803e3d6000fd5b505050506040513d601f19601f820116820180604052508101906108b09190610b96565b506007850154604080518b8152602081018b90526001600160a01b0390921682820152517f23ac25c153b74f91fd55812458801b604fb52e6b0ae22857c13632196e2f34b49181900360600190a1505050505050505050565b600060088260405160200161091e9190610dbb565b60408051601f198184030181529190528051602090910120901c92915050565b600081831215610957576109528383610dd7565b610961565b6109618284610dd7565b9392505050565b634e487b7160e01b600052604160045260246000fd5b60008060006060848603121561099357600080fd5b833567ffffffffffffffff8111156109aa57600080fd5b8401601f810186136109bb57600080fd5b803567ffffffffffffffff8111156109d5576109d5610968565b604051601f8201601f19908116603f0116810167ffffffffffffffff81118282101715610a0457610a04610968565b604052818152828201602001881015610a1c57600080fd5b816020840160208301376000602092820183015297908601359650604090950135949350505050565b600060208284031215610a5757600080fd5b5035919050565b60005b83811015610a79578181015183820152602001610a61565b50506000910152565b60008151808452610a9a816020860160208601610a5e565b601f01601f19169290920160200192915050565b6001600160a01b038816815260e060208201819052600090610ad290830189610a82565b6040830197909752506060810194909452911515608084015260a08301526001600160a01b031660c09091015292915050565b6000806000806000806101a08789031215610b1f57600080fd5b86356001600160a01b0381168114610b3657600080fd5b95506020870135945060408701359350610160870188811115610b5857600080fd5b9598949750929560608101953594610180909101359350915050565b60008060408385031215610b8757600080fd5b50508035926020909101359150565b600060208284031215610ba857600080fd5b8151801515811461096157600080fd5b634e487b7160e01b600052601160045260246000fd5b600060018201610be057610be0610bb8565b5060010190565b600181811c90821680610bfb57607f821691505b602082108103610c1b57634e487b7160e01b600052602260045260246000fd5b50919050565b601f821115610c6b57806000526020600020601f840160051c81016020851015610c485750805b601f840160051c820191505b81811015610c685760008155600101610c54565b50505b505050565b815167ffffffffffffffff811115610c8a57610c8a610968565b610c9e81610c988454610be7565b84610c21565b6020601f821160018114610cd25760008315610cba5750848201515b600019600385901b1c1916600184901b178455610c68565b600084815260208120601f198516915b82811015610d025787850151825560209485019460019092019101610ce2565b5084821015610d205786840151600019600387901b60f8161c191681555b50505050600190811b01905550565b8581526001600160a01b038516602082015260a060408201819052600090610d5990830186610a82565b606083019490945250608001529392505050565b60006101a0820190508782528660208301528560408301528460608301528360808301526101008360a0840137979650505050505050565b634e487b7160e01b600052603260045260246000fd5b60008251610dcd818460208701610a5e565b9190910192915050565b8181036000831280158383131683831282161715610df757610df7610bb8565b509291505056fea264697066735822122078052a79b6bc47d8e4cf56a01a027e586411fa389fab365f18d216b6dfde61c764736f6c634300081a0033","linkReferences":{}},"methodIdentifiers":{"createGame(string,uint256,uint256)":"0b6d715b","gameIdCounter()":"1bb412d6","games(uint256)":"117a5b90","submitAnswer(uint256,int256)":"65ab924e","usdc()":"3e413bee","verifyAndExecute(address,uint256,uint256,uint256[8],uint256,int256)":"2c9f7691"},"id":21}